:100000000C94FB000C9423010C9423010C94230109
:100010000C9423010C9423010C9423010C942301D0
:100020000C9423010C9423010C9469050C94DB05BA
:100030000C9423010C9423010C9423010C942301B0
:100040000C9423010C9423010C9423010C942301A0
:100050000C9423010C9423010C9423010C941F0590
:100060000C9423010C9423010C9423010C94230180
:100070000C9423010C9423010C9423010C94230170
:100080000C9423010C9423010C9423010C94230160
:100090000C9423010C9423010C9423010C94230150
:1000A0000C9423010C9423010C942301C201C5017B
:1000B000B401B801BC01E601E601E601C901CD01C8
:1000C000D101D701DB01E601E1014E414E494E4924
:1000D0005459494E46CDCCCC3D0AD7233C17B7D115
:1000E0003877CC2B329595E6241FB14F0A000020BB
:1000F000410000C84200401C4620BCBE4CCA1B0E3A
:100100005AAEC59D74080B000202020100090400EA
:100110000001020200000524001001052401010174
:10012000042402060524060001070581031000408F
:1001300009040100020A0000000705020240000055
:10014000070583024000000403090412010002EFC6
:100150000201404123368000010102030141726423
:1001600075696E6F204C4C430041726475696E6F07
:10017000204C656F6E6172646F0000000002000920
:100180000F0000030401000C00000000000000004C
:100190000000000000000000000000000025002812
:1001A000002B002E00310000000000240027002A50
:1001B000002D0030000404040404030405020202BC
:1001C00002040302020202060606060606040402F0
:1001D0000202040404080201104080401020408004
:1001E000408008020401804020100201108010208D
:1001F00040402000E00911241FBECFEFDAE0DEBF4F
:10020000CDBF26E0AEEAB1E001C01D92A930B20731
:10021000E1F711E0A0E0B1E0EAE2F0E202C005900F
:100220000D92AE3AB107D9F710E0CBEFD0E004C0A1
:100230002197FE010E943C0DCA3FD107C9F70E94D9
:1002400019080C9413100C94000090E0FC01EC527F
:10025000FE4F2491FC01EB54FE4F8491882399F0CA
:1002600090E0880F991FFC01E955FE4FA591B491CC
:10027000FC01E756FE4F859194918FB7F894EC916D
:10028000E22BEC938FBF08952091B605211103C096
:100290008FEF9FEF08955FB7F89422E02093E90075
:1002A0002091F20030E01216130614F421E030E041
:1002B000422FFC0184E6415038F028988093B50520
:1002C0009091F1009193F7CF2115310521F08091A4
:1002D000F200882319F05FBFC90108958BE680936F
:1002E000E800F9CF2FB7F89483E08093E90090916C
:1002F000E800892F807295FF04C09091F20080E49D
:10030000891B2FBF08958091AD0581110DC082E03A
:100310008093A90584E08093AA051092AC05109201
:10032000AB0581E08093AD0589EA95E00895362F0D
:1003300090E0FC01E658FE4F4491FC01EC52FE4F68
:100340002491FC01EB54FE4F8491882309F452C0A0
:100350004423E1F150E0FA013197EF30F105B0F5B7
:10036000EA5AFF4F0C943C0D909180009F7707C094
:10037000909180009F7D03C090918000977F909323
:10038000800024C094B59F7702C094B59F7D94BD32
:100390001DC0909190009F7707C0909190009F7D25
:1003A00003C090919000977F909390000FC0909120
:1003B000C0009F7703C09091C0009F7D9093C000C4
:1003C00005C09091C200977F9093C200E82FF0E0A3
:1003D000EE0FFF1FE756FE4FA591B4919FB7F8941B
:1003E000311104C08C912095282302C0EC912E2B52
:1003F0002C939FBF08958230910538F0880F991F84
:10040000880F991F05970197F1F708953FB7F89462
:100410008091A5059091A605A091A705B091A8058A
:1004200026B5A89B05C02F3F19F00196A11DB11D4F
:100430003FBFBA2FA92F982F8827820F911DA11D8A
:10044000B11DBC01CD0142E0660F771F881F991FC7
:100450004A95D1F708958F929F92AF92BF92CF9213
:10046000DF92EF92FF926B017C010E9406024B012A
:100470005C01C114D104E104F104F1F00E94060210
:10048000DC01CB0188199909AA09BB09883E934070
:10049000A105B10570F321E0C21AD108E108F10805
:1004A00088EE880E83E0981EA11CB11CC114D104F3
:1004B000E104F10419F7DDCFFF90EF90DF90CF90CA
:1004C000BF90AF909F908F9008954091B001509150
:1004D000B1012091AE013091AF0142175307B4F43E
:1004E0009091E8009570E1F39091E80092FD19C0B9
:1004F0008093F1008091B0019091B10101968F73CA
:100500009927892B19F48EEF8093E8008091B00130
:100510009091B10101969093B1018093B00181E077
:10052000089580E00895DF92EF92FF920F931F935A
:10053000CF93DF93D82EF92EE42E062F10E0C801BA
:100540000196880F0E94650283E00E946502CD2D0E
:10055000DF2D0C0F1D1FC017D10789F0E7FE03C068
:10056000FE01849101C088810E946502F82E80E01E
:100570000E9465028F2121968111EDCF01C081E09B
:10058000DF91CF911F910F91FF90EF90DF90089531
:10059000DF92EF92FF920F931F93CF93DF93D82EAA
:1005A0008A017B01E40EF51EEB01CE15DF0571F02B
:1005B000D7FE03C0FE01849101C088810E946502BC
:1005C00021968111F2CF8FEF9FEF01C0C801DF911B
:1005D000CF911F910F91FF90EF90DF9008950F93AF
:1005E0001F93CF93DF931F92CDB7DEB782E089834D
:1005F00042E450E065E071E080E80E94C8020E9499
:100600008301DC0112960D911C91139701151105C0
:1006100089F0D801ED91FC910280F381E02DBE01BB
:100620006F5F7F4FC801099597FD04C0F8010085F1
:100630001185ECCF89810F90DF91CF911F910F91A0
:100640000895615030F02091F100FC012083019663
:10065000F8CF289884E68093B5050895CF92DF926D
:10066000EF92FF920F931F93CF93DF936C017A0168
:100670008B01C0E0D0E0CE15DF0581F0D8016D918F
:100680008D01D601ED91FC910190F081E02DC60124
:100690000995892B11F02196EECF7E01C701DF91DC
:1006A000CF911F910F91FF90EF90DF90CF90089521
:1006B0008F929F92AF92BF92CF92DF92EF92FF9272
:1006C0000F931F93CF93DF936C017B018A0180917D
:1006D0000B01882309F45CC08091B605882309F4D6
:1006E00057C08091B40180FF05C08091E000826016
:1006F0008093E000E801B12C8AEFA82E93E0892EC8
:100700002AE3922E209711F4BB20D9F10E947201A6
:1007100081110AC0AA94AA20D9F161E070E080E0BA
:1007200090E00E942B02EECF282F30E0C217D307B3
:100730000CF48C2F9FB7F8948092E9002091E80088
:1007400025FF1DC0282F30E0C21BD30BF7018150BD
:1007500020F041914093F100FACFE20EF31EBB204E
:1007600019F09092E8000AC08091E80085FD07C06A
:100770009092E800BB24B394209709F0B12C9FBF5E
:10078000C1CF5D9884E68093B3011016110644F042
:1007900081E090E0F6019383828380E090E001C0E5
:1007A000C801DF91CF911F910F91FF90EF90DF90E3
:1007B000CF90BF90AF909F908F900895CF93DF938D
:1007C0001F92CDB7DEB76983DC01ED91FC91028009
:1007D000F381E02D41E050E0BE016F5F7F4F09954E
:1007E0000F90DF91CF91089583E08093E90080918D
:1007F000F200882319F08AE38093E80008950E94AC
:10080000720190E00895CF93DF931F92CDB7DEB7CA
:10081000FC018485958597FD05C02FEF3FEF358757
:1008200024870BC0CE0101960E944401019719F460
:10083000898190E002C08FEF9FEF0F90DF91CF9101
:1008400008950F931F93CF93DF931F92CDB7DEB719
:100850008C01FC018485958597FF0EC0CE01019621
:100860000E944401019719F4898190E002C08FEF42
:100870009FEFF80195878487F801848595850F900F
:10088000DF91CF911F910F910895FC01848595858B
:1008900097FD0BC09FB7F89482E08093E9008091A8
:1008A000F2009FBF90E0019608959FB7F89482E010
:1008B0008093E9008091F2009FBF90E00895089531
:1008C00080E090E008952F923F924F925F926F9256
:1008D0007F928F929F92AF92BF92CF92DF92EF92D0
:1008E000FF920F931F93CF93DF93782E692E4A01C7
:1008F0005B01C0E3D0E061E08CE00E94970120E062
:1009000030E048E453E4C501B4010E94F40B0E94B6
:10091000060D1B012C016B01CB010E94FB0160E065
:100920008CE00E949701C1010E94FB01219719F7F9
:1009300064E070E080E090E00E942B0205E010E0AF
:10094000C72DD62D90E1E92EF12C61E08CE00E94BC
:100950009701C6010E94FB01D7FD04C060E08CE056
:100960000E94970120E030E04DEC53E4C501B40152
:100970000E94F40B0E94060DCB010E94FB0160E077
:100980008CE00E94970120E030E042E553E4C5018D
:10099000B4010E94F40B0E94060DCB010E94FB01E2
:1009A000CC0FDD1F81E0E81AF10879F620E030E095
:1009B00040E850E4C501B4010E94F40B0E94060D0A
:1009C000072E000C880B990B0E942B020150110975
:1009D00009F0B6CFDF91CF911F910F91FF90EF906B
:1009E000DF90CF90BF90AF909F908F907F906F904F
:1009F0005F904F903F902F900895009769F0FC0111
:100A000001900020E9F73197AF01481B590BBC0159
:100A100087EB95E00C94580380E090E00895CF9325
:100A2000DF930E94FD04EC0185E291E00E94FD0449
:100A30008C0F9D1FDF91CF9108950E94420D1F9250
:100A40000F920FB60F9211242F933F938F939F9382
:100A5000AF93BF938091A1059091A205A091A305AA
:100A6000B091A4053091A00523E0230F2D3720F489
:100A70000196A11DB11D05C026E8230F0296A11DF8
:100A8000B11D2093A0058093A1059093A205A0938A
:100A9000A305B093A4058091A5059091A605A0910A
:100AA000A705B091A8050196A11DB11D8093A505CC
:100AB0009093A605A093A705B093A805BF91AF9109
:100AC0009F918F913F912F910F900FBE0F901F908C
:100AD00018951F920F920FB60F9211248F939F9328
:100AE0008091E1009091E100937F9093E10083FF7A
:100AF0000FC01092E90091E09093EB001092EC008F
:100B000092E39093ED001092B60598E09093F00078
:100B100082FF20C093E09093E9009091F200992326
:100B200019F09AE39093E8009091B301992339F07A
:100B30009091B30191509093B301992389F19091D1
:100B4000B505992339F09091B50591509093B5056D
:100B5000992341F184FF10C08091E2008E7E816074
:100B60008093E2008091E1008F7E8093E10080918C
:100B7000B4018E7E806111C080FF16C08091E200BA
:100B80008E7E80618093E2008091E1008E7E809372
:100B9000E1008091B4018E7E81608093B40104C035
:100BA0005D9ACDCF289AD6CF9F918F910F900FBE8F
:100BB0000F901F9018951F920F920FB60F9211244D
:100BC000CF92DF92EF92FF920F931F932F933F9359
:100BD0004F935F936F937F938F939F93AF93BF9345
:100BE000EF93FF93CF93DF93CDB7DEB76C97DEBF64
:100BF000CDBF1092E9008091E80083FFFBC168E05F
:100C0000CE0145960E94210382EF8093E8008D89F2
:100C100087FF05C09091E80090FFFCCF03C09EEFD6
:100C20009093E800982F907609F0C6C09E894F896E
:100C3000588D2F89F88C91110CC0803829F480913F
:100C4000B5018093F10002C01092F1001092F10002
:100C500045C1913051F4811141C14130510509F034
:100C60003DC18091B5018D7F0BC0933061F481113E
:100C700035C14130510509F031C18091B501826023
:100C80008093B5012BC1953049F48091E80080FF35
:100C9000FCCF822F80688093E30020C1963009F05A
:100CA0005EC00B8D1C8D22E01092E9001092B10104
:100CB0001092B001F21232C01092AF011092AE0148
:100CC0000E94EF0299E0BE016F5F7F4FDB01E92FC9
:100CD0001D92EA95E9F79983FA8291E09E8390EA62
:100CE00098879AEF99872091B0013091B101275FE1
:100CF0003F4F3C832B838D831092E9001092B1010A
:100D00001092B0011093AF010093AE0149E050E0A2
:100D100080E00E94C8020E94EF02E0C01093AF0181
:100D20000093AE010E948301DC0112960D911C918B
:100D300013970115110509F4BBC0D801ED91FC9181
:100D40000480F581E02DBE016B5E7F4FC8010995DF
:100D5000009709F0C7C0F80100851185EACF9730E8
:100D600009F445C1983021F481E08093F100B6C0C8
:100D7000993009F0B3C0837009F039C1EFE1F1E0B7
:100D800081E031E096E32081211109C08EE7809354
:100D9000EA001092EA008F898093B6059FC0809385
:100DA000E9003093EB0021912093EC009093ED004B
:100DB0008F5F873041F7EACF8B8D9C8D1092E900D1
:100DC0001092B1011092B0019093AF018093AE01E7
:100DD000898D811153C08E899D89913A49F4813260
:100DE00009F005C147E050E064E071E080E0BBC07D
:100DF000913209F0FCC0833269F48F89988DA0E0AC
:100E0000B0E08093000190930101A0930201B093A0
:100E1000030164C0803269F48091E80082FFFCCF56
:100E200067E084E091E00E9421038BEF8093E8006B
:100E300055C0823209F052C08F8980930B01EEEFCA
:100E4000FFE7859194918B3F9C4D19F0E0E0F8E02D
:100E500002C0EEEFFAE08091040190910501A091AB
:100E60000601B0910701803B9440A105B10509F04E
:100E70009EC080910B0180FF79C099C00E948301C0
:100E8000FC01028113810115110509F4B0C0D801DC
:100E9000ED91FC910190F081E02DBE016B5E7F4FE2
:100EA000C801099581111AC0F80100851185EBCFA1
:100EB000F1E0FF1609F44EC0F3E0FF1298C08F89ED
:100EC000882309F44AC0823089F440E860E189E669
:100ED00091E00E949302882309F489C08EEF8093E9
:100EE000E80088C018161906CCF381C0813029F4B7
:100EF00040E86BE08DE591E0ECCF833009F077C0FE
:100F00000E948301DC011296ED90FC9013978E01F4
:100F10000F5F1F4F6801E114F10479F0D701ED91E3
:100F2000FC910680F781E02DB801C7010995080FF3
:100F3000111DF701E084F184EECFD8011C92F60177
:100F400001900020E9F73197BF016C197D0940E05D
:100F5000C601BFCF6BE471E002C067E471E0FB0142
:100F6000449150E080E80E94C802B8CFEE3F2AE0EA
:100F7000F20751F0808191818737A7E79A0721F026
:100F80009093FF0A8093FE0A87E797E79183808317
:100F9000809160008093B2019BE088E10FB6F894E5
:100FA000A895809360000FBE9093600097CF8081DA
:100FB00091818737974709F091CFA895809160007C
:100FC0008861809360008091B20180936000EE3F61
:100FD000BAE0FB0739F08091FE0A9091FF0A9183F5
:100FE00080837CCF1092FF0A1092FE0A77CF81E2B5
:100FF0008093EB006C960FB6F894DEBF0FBECDBFAA
:10100000DF91CF91FF91EF91BF91AF919F918F9120
:101010007F916F915F914F913F912F911F910F9110
:10102000FF90EF90DF90CF900F900FBE0F901F902A
:101030001895CF93DF9300D0CDB7DEB7789484B501
:10104000826084BD84B5816084BD85B5826085BDC4
:1010500085B5816085BD80916E00816080936E0052
:101060001092810080918100826080938100809144
:1010700081008160809381008091800081608093F5
:101080008000809191008260809391008091910016
:1010900081608093910080919000816080939000A6
:1010A0008091C10084608093C1008091C100826002
:1010B0008093C1008091C10081608093C1008091C4
:1010C000C30081608093C3008091C00082608093E0
:1010D000C0008091C20081608093C20080917A003C
:1010E000846080937A0080917A00826080937A0095
:1010F00080917A00816080937A0080917A00806884
:1011000080937A001092B6051092B5011092B40146
:101110008091D70081608093D70080EA8093D800C7
:1011200089B5806189BD89B5826089BD09B400FE39
:10113000FDCF61E070E080E090E00E942B028091A2
:10114000D8008F7C80618093D8008091E000807F00
:101150008093E0008091E1008E7E8093E1008DE03D
:101160008093E200559A209A8FEF9FEF9093C405E9
:101170008093C30510910B016AE070E080E090E07D
:101180000E942B021123B1F388E291E00E940F0527
:101190008CE00E94250183E00E9425019FE4A92E96
:1011A00091E0B92E20E0822E20E0922E3AE0232E0C
:1011B00087EB95E00E944504181619060CF0F9C05B
:1011C00087EB95E00E9403048C0189831A82CE018B
:1011D00001960E94FD040D30110509F0D1C029824D
:1011E000CE0101960E94FD04E0919E05F0919F05BD
:1011F000EA54FE4F10826CE270E086EB91E00E94B0
:10120000470D8C01009739F4C12CD12C80E8E82ED1
:101210008FE3F82E11C0FC011192CF0144E050E0A1
:1012200060E471E00E94520D892B71F7C8010696A7
:101230000E94F5096B017C0143E050E066E471E037
:1012400086EB91E00E94520D892B49F489EB91E0E5
:101250000E94F909182F00E03324339414C044E0AD
:1012600050E06AE471E086EB91E00E94520D892B18
:1012700039F48AEB91E00E94F909182F01E002C0CD
:1012800010E000E0312CC701B6010E94060D2B01D1
:101290003C0120E030E040E251E4C701B6010E9489
:1012A000F40B0E94060D46EF92014203F001439FAA
:1012B000F00D11246E0F7F1F332021F17F936F9368
:1012C0005F924F921F921F93BF92AF9286EB91E075
:1012D0009F938F930E94600D86EB91E00E940F0513
:1012E00061E083E00E94970161E070E080E090E0BF
:1012F0000E942B021F70812F90E0B701A601805E33
:10130000974927C0002389F17F936F935F924F9293
:101310001F921F93EEE7F1E0FF93EF9386EB91E0CE
:101320009F938F930E94600D86EB91E00E940F05C2
:1013300061E083E00E94970161E070E080E090E06E
:101340000E942B021F70812F90E0B701A601805FE1
:1013500097490E94630460E083E00E9497010FB602
:10136000F894DEBF0FBECDBF04C088E291E00E94BA
:101370000F0510929F0510929E051092B60119C09C
:101380000A301105B1F080919E0590919F059C0156
:101390002F5F3F4F30939F0520939E05FC01EA5439
:1013A000FE4F0083283E334021F410929F05109297
:1013B0009E058114910409F4FBCE0E940000F8CE32
:1013C000E7EBF5E01382128288EE93E0A0E0B0E054
:1013D00084839583A683B78380E191E091838083A2
:1013E0008FEF9FEF958784870895662777270C9462
:1013F0001F0AFC0188279927E89421912032E9F3FC
:10140000293010F02E30C8F32B3241F02D3239F450
:10141000689404C00E94170A820F911D21912053E5
:101420002A30C0F31EF4909581959F4F08957AE07D
:10143000979F902D879F802D910D11240895A0E0F6
:10144000B0E0E5E2FAE00C94C60CEC016B0161152A
:10145000710519F0FB01918380837E01FFEFEF1A84
:10146000FF0A0881802F90E00E946D0B892B11F0FC
:10147000E701F3CF0D3239F47E0182E0E80EF11C72
:10148000098111E008C00B3229F47E0192E0E90ED7
:10149000F11C098110E0E701219743E050E062ED83
:1014A00070E0CE010E94760B892BC1F4239645E0B3
:1014B00050E06DEC70E0CE010E94760B892B09F4B0
:1014C0002596C114D10419F0F601D183C0831111FE
:1014D000F6C060E070E080E89FE7FAC043E050E0CB
:1014E0006AEC70E0CE010E94760B892B59F4C1148E
:1014F000D10409F4E9C0F2E0EF0EF11CF601F1822B
:10150000E082E2C020E030E0A901C0E0D0E0F701D5
:1015100080EDA82EA00E89E08A1530F1912F9260FF
:10152000B92E812F887012FF04C0811124C021962A
:1015300022C081112197A5E0B0E00E94B50CDC012A
:10154000CB01880F991FAA1FBB1F9C01AD012A0D5B
:10155000311D411D511D283989E93807480789E1A6
:10156000580748F0166006C09EEFA9120AC013FD86
:1015700040C01860B12E8FEFE81AF80A00811B2DC9
:10158000C6CF802F8F7D8534A1F580818D3211F4F7
:10159000106106C08B3221F0319661E070E004C02A
:1015A0008181329662E070E080538A3018F0E61B49
:1015B000F70B1FC060E070E060389CE079075CF4D6
:1015C000DB01AA0FBB1FAA0FBB1F6A0F7B1F660F91
:1015D000771F680F711D3196DF0111978C91805331
:1015E0008A3050F314FF03C0719561957109C60FDD
:1015F000D71F11FF08C0C114D10429F0CF010197F2
:10160000F60191838083CA01B9010E94930B212FB7
:101610002370233019F04B015C0106C04B015C01C3
:10162000B7FAB094B7F8B09420E030E0A901C50152
:10163000B4010E948E0B882309F43EC0D7FF06C078
:10164000D195C195D10909EE10E002C001E011E089
:101650006801F8E1CF1AD10890E2E92EF12CCE15FD
:10166000DF0574F0F8012591359145915491C5013C
:10167000B4010E94F40B4B015C01CE19DF09EFCFDE
:1016800004501109F594E7940C151D0541F78A2DB6
:10169000880F8B2D881F8F3F49F020E030E0A90193
:1016A000C501B4010E948E0B811106C082E290E058
:1016B0009093080680930706C501B40109C060E055
:1016C00070E080E89FEF04C060E070E080EC9FE78E
:1016D000CDB7DEB7ECE00C94E20C91110C94610CE8
:1016E000803219F089508550C8F70895FB01DC015C
:1016F0004150504088F08D9181341CF08B350CF4B2
:10170000805E659161341CF06B350CF4605E861B65
:10171000611171F3990B0895881BFCCF0E94D00BC7
:1017200008F481E00895E89409C097FB3EF4909591
:101730008095709561957F4F8F4F9F4F9923A9F0AA
:10174000F92F96E9BB279395F69587957795679539
:10175000B795F111F8CFFAF4BB0F11F460FF1BC07D
:101760006F5F7F4F8F4F9F4F16C0882311F096E910
:1017700011C0772321F09EE8872F762F05C06623BE
:1017800071F096E8862F70E060E02AF09A95660F77
:10179000771F881FDAF7880F9695879597F9089530
:1017A000990F0008550FAA0BE0E8FEEF1616170672
:1017B000E807F907C0F012161306E407F50798F0DA
:1017C000621B730B840B950B39F40A2661F0232BF3
:1017D000242B252B21F408950A2609F4A140A6956F
:1017E0008FEF811D811D08950E94070C0C947B0CC6
:1017F0000E946D0C38F00E94740C20F0952311F0BB
:101800000C94640C0C946A0C11240C94AF0C0E9480
:101810008C0C70F3959FC1F3950F50E0551F629F9C
:10182000F001729FBB27F00DB11D639FAA27F00D39
:10183000B11DAA1F649F6627B00DA11D661F829F60
:101840002227B00DA11D621F739FB00DA11D621F45
:10185000839FA00D611D221F749F3327A00D611D62
:10186000231F849F600D211D822F762F6A2F112444
:101870009F5750409AF0F1F088234AF0EE0FFF1F77
:10188000BB1F661F771F881F91505040A9F79E3FCE
:10189000510580F00C94640C0C94AF0C5F3FE4F3A2
:1018A000983ED4F3869577956795B795F795E79524
:1018B0009F5FC1F7FE2B880F911D9695879597F92D
:1018C000089599278827089597F99F6780E870E021
:1018D00060E008959FEF80EC089500240A941616A6
:1018E000170618060906089500240A94121613060E
:1018F000140605060895092E0394000C11F488239C
:1019000052F0BB0F40F4BF2B11F460FF04C06F5FB7
:101910007F4F8F4F9F4F089557FD9058440F551F8D
:1019200059F05F3F71F04795880F97FB991F61F061
:101930009F3F79F087950895121613061406551FD8
:10194000F2CF4695F1DF08C0161617061806991F44
:10195000F1CF86957105610508940895E894BB2739
:1019600066277727CB0197F908950E94F70CA59F6A
:10197000900DB49F900DA49F800D911D112408958A
:101980002F923F924F925F926F927F928F929F928F
:10199000AF92BF92CF92DF92EF92FF920F931F937D
:1019A000CF93DF93CDB7DEB7CA1BDB0B0FB6F8942E
:1019B000DEBF0FBECDBF09942A88398848885F846E
:1019C0006E847D848C849B84AA84B984C884DF80DF
:1019D000EE80FD800C811B81AA81B981CE0FD11DC3
:1019E0000FB6F894DEBF0FBECDBFED010895A29FE4
:1019F000B001B39FC001A39F700D811D1124911DE3
:101A0000B29F700D811D1124911D08950E940D0D2E
:101A10006894B1110C94AF0C08950E94940C88F056
:101A20009F5798F0B92F9927B751B0F0E1F0660FA2
:101A3000771F881F991F1AF0BA95C9F714C0B130E3
:101A400091F00E94AE0CB1E008950C94AE0C672F9B
:101A5000782F8827B85F39F0B93FCCF38695779512
:101A60006795B395D9F73EF49095809570956195FB
:101A70007F4F8F4F9F4F0895EE0FFF1F0590F491FA
:101A8000E02D099481E090E0F8940C941310FC018F
:101A90008191861721F08823D9F7992708953197E6
:101AA000CF010895FB01DC014150504030F08D9191
:101AB0000190801919F40020B9F7881B990B08953B
:101AC000AEE0B0E0E6E6FDE00C94CE0C0D891E8998
:101AD00086E08C831A8309838FEF9FE79E838D8333
:101AE000AE01475E5F4F6F89788DCE0101960E94EF
:101AF000820DEF81F885E00FF11F10822E96E4E051
:101B00000C94EA0CABE0B0E0E8E8FDE00C94C00C0B
:101B10006C017B018A01FC0117821682838181FF9F
:101B2000CCC1CE0101963C01F6019381F70193FDF2
:101B3000859193FF81917F01882309F4BAC1853291
:101B400039F493FD859193FF81917F01853229F4CA
:101B5000B60190E00E94790FE7CF912C212C312C17
:101B6000FFE1F315D8F08B3279F038F4803279F058
:101B70008332A1F4232D20611DC08D3261F08033AA
:101B800069F4232D216016C0832D8260382EE32D49
:101B9000E4603E2E2AC0F32DF8601DC037FC2DC036
:101BA00020ED280F2A3040F08E32B9F436FC81C186
:101BB000232D2064322E19C036FE06C08AE0989E7E
:101BC000200D1124922E11C0EAE02E9E200D11242A
:101BD000222EF32DF0623F2E08C08C3621F4832D87
:101BE0008068382E02C0883641F4F70193FD859154
:101BF00093FF81917F018111B3CF982F9F7D9554E1
:101C0000933028F40C5F1F4F9FE399830DC08336F8
:101C100031F0833771F0833509F059C021C0F801E4
:101C2000808189830E5F1F4F88248394912C5301F8
:101C300013C02801F2E04F0E511CF801A080B180C2
:101C400036FE03C0692D70E002C06FEF7FEFC50163
:101C50000E946E0F4C018201F32DFF773F2E16C0BC
:101C6000280122E0420E511CF801A080B18036FE0E
:101C700003C0692D70E002C06FEF7FEFC5010E94C5
:101C8000630F4C01F32DF0683F2E820133FC1BC023
:101C9000822D90E088169906B0F4B60180E290E0BB
:101CA0000E94790F2A94F4CFF50137FC859137FE15
:101CB00081915F01B60190E00E94790F21102A9472
:101CC00021E0821A91088114910471F7E8C08436EA
:101CD00011F0893641F5F80137FE07C06081718146
:101CE000828193810C5F1F4F08C060817181072E34
:101CF000000C880B990B0E5F1F4FF32DFF763F2EC4
:101D000097FF09C090958095709561957F4F8F4F93
:101D10009F4FF0683F2E2AE030E0A3010E94B50FEC
:101D2000882E861845C0853731F4232D2F7EB22E9C
:101D30002AE030E025C0932D997FB92E8F36C1F06F
:101D400018F4883579F0B5C0803719F0883721F05C
:101D5000B0C0E92FE061BE2EB4FE0DC0FB2DF460D3
:101D6000BF2E09C034FE0AC0292F2660B22E06C03D
:101D700028E030E005C020E130E002C020E132E0A0
:101D8000F801B7FE07C060817181828193810C5F89
:101D90001F4F06C06081718180E090E00E5F1F4F91
:101DA000A3010E94B50F882E8618FB2DFF773F2ECA
:101DB00036FE0DC0232D2E7FA22E891458F434FE3A
:101DC0000BC032FC09C0832D8E7EA82E05C0B82C16
:101DD000A32C03C0B82C01C0B92CA4FE0FC0FE0177
:101DE000E80DF11D8081803321F49A2D997EA92E72
:101DF00009C0A2FE06C0B394B39404C08A2D8678AD
:101E000009F0B394A3FC11C0A0FE06C0B21488F47C
:101E1000280C922C9B180EC0B21460F4B60180E21C
:101E200090E00E94790FB394F7CFB21418F42B18F6
:101E300002C0982C212CA4FE10C0B60180E390E0D3
:101E40000E94790FA2FE17C0A1FC03C088E790E0B2
:101E500002C088E590E0B6010CC08A2D867859F062
:101E6000A1FE02C08BE201C080E2A7FC8DE2B601B8
:101E700090E00E94790F891438F4B60180E390E075
:101E80000E94790F9A94F7CF8A94F301E80DF11D1F
:101E90008081B60190E00E94790F8110F5CF222059
:101EA00009F442CEB60180E290E00E94790F2A94B4
:101EB000F6CFF6018681978102C08FEF9FEF2B96B8
:101EC000E2E10C94DC0CFC010590615070400110C3
:101ED000D8F7809590958E0F9F1F0895FC01615053
:101EE000704001900110D8F7809590958E0F9F1F3C
:101EF00008950F931F93CF93DF93FB01238121FD5F
:101F000003C08FEF9FEF2CC022FF16C04681578180
:101F1000248135814217530744F4A081B1819D018A
:101F20002F5F3F4F318320838C93268137812F5F32
:101F30003F4F3783268314C08B01EC01FB010084E3
:101F4000F185E02D0995892BE1F6D80116968D9142
:101F50009C911797019617969C938E931697CE0196
:101F6000DF91CF911F910F910895FA01AA27283090
:101F700051F1203181F1E8946F936E7F6E5F7F4F56
:101F80008F4F9F4FAF4FB1E03ED0B4E03CD0670FD2
:101F9000781F891F9A1FA11D680F791F8A1F911D25
:101FA000A11D6A0F711D811D911DA11D20D009F475
:101FB00068943F912AE0269F11243019305D3193B7
:101FC000DEF6CF010895462F4770405D4193B3E0A0
:101FD0000FD0C9F7F6CF462F4F70405D4A3318F047
:101FE000495D31FD4052419302D0A9F7EACFB4E0F8
:101FF000A6959795879577956795BA95C9F70097B0
:102000006105710508959B01AC010A2E0694579550
:10201000479537952795BA95C9F7620F731F841FA7
:0A202000951FA01D0895F894FFCF4E
:10202A00FFFFFFFF00E100000000000000000000C9
:10203A00DE035803FF03F40345040304210400C12B
:10204A0080810000000D0A0052656D6F7465204C96
:10205A006967687420436F6E74726F6C6C65720086
:10206A00667265713A006F6E3A006F66663A00549E
:10207A0075726E696E67206F6E206C69676874731B
:10208A002069643A2025642077697468206672653D
:10209A007175656E63792025642E25642000547558
:1020AA00726E696E67206F6666206C696768747302
:1020BA002069643A2025642077697468206672650D
:0E20CA007175656E63792025642E25642000F3
:2070000055C000006EC000006CC000006AC0000068C0000066C0000064C0000062C0000043
:2070200060C000005EC00000F2C400005AC0000058C0000056C0000054C0000052C00000EE
:2070400050C0000078C000004CC000004AC0000048C0000046C0000044C0000042C00000BE
:2070600040C000003EC000003CC000003AC0000038C0000036C0000034C0000032C0000048
:2070800030C000002EC000002CC000002AC0000028C0000026C0000024C0000022C00000A8
:2070A00020C000001EC000001CC0000011241FBECFEFDAE0DEBFCDBF11E0A0E0B1E0E2E3BC
:2070C000FFE702C005900D92A83AB107D9F711E0A8EAB1E001C01D92AE3BB107E1F78FD30B
:2070E00026C78ECFF89410926F0010928100109285001092840081E085BF15BE47985D9AEB
:20710000289A0C94000008952091B2013091B3012F5F3F4F3093B3012093B201932F37FFA6
:2071200003C08EEF831B982F990F921710F447980895479A08951F920F920FB60F9211246E
:207140002F938F939F93EF93FF9310928500109284008091A8019091A901009741F00197D3
:207160009093A9018093A801892B09F45D9A8091AA019091AB01009741F001979093AB0126
:207180008093AA01892B09F4289AE0E0F0E0859194918F5F9F4F49F08091AC019091AD0151
:2071A00001969093AD018093AC01FF91EF919F918F912F910F900FBE0F901F90189584E0BC
:2071C0008093E9000DC08091E8008B778093E80003C08EB3882351F08091E80082FFF9CFBE
:2071E0008091E80085FFEFCF8091F1000895982F83E08093E9008091E80085FD0DC0809136
:20720000E8008E778093E80003C08EB3882369F08091E80080FFF9CF9093F1005D9884E6CB
:2072200090E09093A9018093A80108954F925F926F927F928F929F92AF92BF92CF92DF921E
:20724000EF92FF920F931F93CF93DF9384E08093E9008091E80082FF57C2289884E690E067
:207260009093AB018093AA01AADF182F853481F48CE49DE19093AD018093AC0107B600FC4B
:20728000FDCFF999FECF81E180935700E89503C0843519F494DF8DE00DC28C34E1F38035F9
:2072A000D1F3843721F484E4A2DF80E003C2813611F489E5FFC18134B1F481DF182F7FDFE3
:2072C00090E0880F991FAA2797FDA095BA2F312F330F20E0442737FD4095542F822B932B68
:2072E000A42BB52BB8C1803711F483E5E3C1833549F4C0E0D1E089917ADF21E0C730D20714
:20730000D1F7D9C1863521F481E371DF80E3D2C1833731F487E86BDF85E969DF8EE1CAC149
:207320008536B9F4E0E0F0E093E085E090935700E89507B600FCFDCF80935700E89507B65D
:2073400000FCFDCFE058FF4FA0E7E030FA0771F7A2CF823739F4E1E0F0E089E08093570024
:207360008491A8C1863439F4E0E0F0E089E08093570084919FC18E3439F4E3E0F0E089E0E5
:2073800080935700849196C1813539F4E2E0F0E089E08093570084918DC1823631F489E521
:2073A00026DF80E024DF80E885C1823419F0873609F0E5C01092AD011092AC0100DF082FE8
:2073C000FEDEF82EFCDE682E8554823008F071C1902F80E0CF2DD0E0C82BD92B10926F00B3
:2073E000173609F04BC081E180935700E895DD24CC24C3943FC0E090AE01F090AF010091CC
:20740000B0011091B101B6E46B16D9F4ED2DF0E0EE29FF29E4918E2FEADEDD2081F082E08D
:2074200090E0A0E0B0E0E80EF91E0A1F1B1FE092AE01F092AF010093B0011093B101DC2470
:2074400018C0D801C701B695A7959795879559D5CEDE82E090E0A0E0B0E0E80EF91E0A1FF2
:207460001B1FE092AE01F092AF010093B0011093B1012197209709F0BECF7DC08090AE01F5
:207480009090AF01A090B001B090B10196E4691609F05DC083E0F40180935700E89507B63E
:2074A00000FCFDCF54C0F6E46F1661F5772031F1E090AE01F090AF010091B0011091B1019E
:2074C0007EDED82ECC24852D90E08C299D29F7010C0140925700E895112482E090E0A0E08B
:2074E000B0E0E80EF91E0A1F1B1FE092AE01F092AF010093B0011093B10102C060DE582E1A
:20750000742423C0E090AE01F090AF010091B0011091B10116950795F794E79450DE682FFA
:20752000C701F7D48091AE019091AF01A091B001B091B1010296A11DB11D8093AE01909349
:20754000AF01A093B001B093B101219704C05524772444244394209709F0A5CF96E46916B6
:2075600041F485E0F40180935700E89507B600FCFDCF8DE03CDE82E080936F009CC0833492
:2075800071F40091AE011091AF0119DE90E021E0F8010C0120935700E89511247CCE8336C8
:2075A00019F5E090AE01F090AF010091B0011091B10105DEF701E16090E021E00C0120938C
:2075C0005700E895112482E090E0A0E0B0E0E80EF91E0A1F1B1FE092AE01F092AF0100936A
:2075E000B0011093B10157CE8D3661F4E091AE01F091AF0185E080935700E89507B600FCF2
:20760000FDCF49CE823551F4E091AE01F091AF0105911491812FEBDD802F4CC0843421F5FE
:20762000E090AE01F090AF010091B0011091B10116950795F794E794C2DD682FC70169D4DE
:207640008091AE019091AF01A091B001B091B1010296A11DB11D8093AE019093AF01A093D8
:20766000B001B093B10117CE843609F5E090AE01F090AF010091B0011091B101D801C70142
:20768000B695A795979587953CD4B1DD82E090E0A0E0B0E0E80EF91E0A1F1B1FE092AE010A
:2076A000F092AF010093B0011093B10104C08B3111F08FE39CDD83E08093E9009091E8002B
:2076C0008091E8008E778093E80095FF04C010C08EB38823C9F08091E80080FFF9CF809193
:2076E000E8008E778093E80003C08EB3882361F08091E80080FFF9CF84E08093E9008091F1
:20770000E8008B778093E800DF91CF911F910F91FF90EF90DF90CF90BF90AF909F908F90AC
:207720007F906F905F904F9008959091B601892F8F77813249F58091B7018032A1F081328A
:2077400019F5913A09F58091E800877F8093E8008DE091E067E070E00BD28091E8008B770B
:207760008093E8000895913279F48091E800877F8093E8008DE091E067E070E05DD2809192
:20778000E8008E778093E800089582E061EC42E0B5D083E061E842E1B1D084E060E842E1EF
:2077A000ADC084B7877F84BF88E10FB6F89480936000109260000FBE20E880E090E00FB63F
:2077C000F89420936100809361000FBE81E085BF92E095BF3F9A209A559AE1E6F0E02083A1
:2077E000108247985D9A289A109289008AEF8093880090936F0083E080938100F0C0409116
:20780000000850910108109201081092000894B714BE88E10FB6F8948093600010926000D5
:207820000FBE292F30E0F901E270F07091FD18C090FF05C0859194918F5F9F4F81F423FFFF
:207840000FC08091090190910A014817590741F0E0E0F0E0859194918F5F9F4F09F042DC64
:20786000A0DF78941092AD011092AC010CC0DEDC36D38091AC019091AD0181549F4110F00D
:207880001092140141DC80911401882381F78091E00081608093E00025DC80E090E0089598
:2078A000FA01923049F0933061F09130F9F485E191E022E130E01EC087E291E02EE330E04D
:2078C00019C0882329F485E691E024E030E012C0813029F489E691E022E230E00BC0823006
:2078E00029F48DE891E028E130E004C080E090E020E030E091838083C90108958093E9004E
:207900008091EB0081608093EB001092ED006093EC004093ED008091EE00881F8827881F62
:2079200008958091B60188238CF403C08EB38823B1F08091E80082FFF9CF8091E8008B772A
:207940008093E80008958EB3882349F08091E80080FFF9CF8091E8008E778093E800089594
:20796000EF92FF920F931F9345D04CD008ED10E0F80180818F77808380818068808380819B
:207980008F7D808319BC1EBA1092B40180EEE82EF12CF70180818B7F8083F8018081816052
:2079A000808380E060E042E0A9DFE1EEF0E080818E7F8083E2EEF0E0808181608083808144
:2079C00088608083F70180818E7F8083F8018081806180831F910F91FF90EF900895E7ED06
:2079E000F0E08081816080838AE482BF81E08093B501B6CFE8EDF0E080818E7F808310921C
:207A0000E20008951092DA001092E10008951F920F920FB60F9211242F933F934F935F93F6
:207A20006F937F938F939F93AF93BF93EF93FF938091DA0080FF1BC08091D80080FF17C0B2
:207A40008091DA008E7F8093DA008091D90080FF0BC080E189BD82E189BD09B400FEFDCF36
:207A600081E08EBB3BD203C019BC1EBA37D28091E10080FF17C08091E20080FF13C0809138
:207A8000E2008E7F8093E2008091E20080618093E2008091D80080628093D80019BC85E049
:207AA0008EBB1CD28091E10084FF2CC08091E20084FF28C080E189BD82E189BD09B400FEC5
:207AC000FDCF8091D8008F7D8093D8008091E1008F7E8093E1008091E2008F7E8093E20012
:207AE0008091E20081608093E2008091B401882331F48091E30087FD02C081E001C084E067
:207B00008EBBECD18091E10083FF21C08091E20083FF1DC08091E100877F8093E10082E06A
:207B20008EBB1092B4018091E1008E7F8093E1008091E2008E7F8093E2008091E2008061E9
:207B40008093E20080E060E042E0D8DEC7D1FF91EF91BF91AF919F918F917F916F915F9130
:207B60004F913F912F910F900FBE0F901F9018959C014091BC015091BD014617570718F49D
:207B8000F90190E044C06115710511F0AB01F8CF8091E8008E778093E80040E050E0F0CF0F
:207BA0008EB3882309F444C0853009F443C08091E80083FF02C081E008958091E80082FD70
:207BC00031C08091E80080FF22C08091F3009091F200782F60E0292F30E0262B372B07C07A
:207BE00081918093F100415050402F5F3F4F4115510519F02830310598F390E02830310566
:207C000009F491E08091E8008E778093E8004115510531F6992321F605C08EB3882341F075
:207C2000853041F08091E80082FFF7CF80E0089582E0089583E008959C016115710529F47C
:207C40008091E8008B778093E800F90126C08EB3882391F1853091F18091E80083FF02C06C
:207C600081E008958091E80082FFF1CF06C08091F10081936150704059F02091F300809191
:207C8000F200322F20E090E0822B932B892B79F78091E8008B778093E80061157105B9F601
:207CA00005C08EB3882341F0853041F08091E80080FFF7CF80E0089582E0089583E00895C2
:207CC0000F931F93DF93CF9300D0CDB7DEB7E6EBF1E08091F100819381E0EE3BF807C9F792
:207CE00024DD8091E80083FFE4C08091B6019091B701953009F46DC0963040F4913081F1A7
:207D0000913070F0933009F0D4C02AC0983009F4A3C0993009F4B2C0963009F0CAC07CC023
:207D2000803809F4C6C0823809F0C3C08091BA0187708093E9008091EB001092E9002091DB
:207D4000E800277F2093E80090E025E0969587952A95E1F781708093F1001092F10087C0D8
:207D6000882319F0823009F0A4C08F71823009F0A0C08091B801882331F52091BA01277097
:207D800009F497C02093E9008091EB0080FF1BC0933021F48091EB00806213C08091EB0018
:207DA00080618093EB0081E090E002C0880F991F2A95E2F78093EA001092EA008091EB00E5
:207DC00088608093EB001092E9008091E800877F51C0882309F06DC01091B8011F770FB79B
:207DE000F8948091E800877F8093E8009ADD8091E80080FFFCCF8091E3008078812B809398
:207E0000E30080688093E300112311F482E001C083E08EBB0FBF4DC08058823008F049C033
:207E20008091B8019091B9016091BA01AE014F5F5F4F36DDBC01009709F43BC08091E8008E
:207E4000877F8093E80089819A8192DE8091E8008B778093E8002DC0803859F58091E800AA
:207E6000877F8093E8008091B4018093F1008091E8008E778093E80054DD1BC08823C9F4CA
:207E80009091B8019230A8F48091E800877F8093E8009093B40145DD8091B401882331F420
:207EA0008091E30087FD02C081E001C084E08EBB6CDC8091E80083FF0AC08091EB0080624E
:207EC0008093EB008091E800877F8093E8000F900F90CF91DF911F910F91089508951F9360
:207EE0008EB3882361F01091E9001092E9008091E80083FF01C0E4DE17701093E9001F916F
:207F00000895F999FECF92BD81BDF89A992780B50895262FF999FECF1FBA92BD81BD20BDBD
:207F20000FB6F894FA9AF99A0FBE01960895F894FFCF4341544552494E4100777700080031
:207F40000000000000080112011001020000084123360001000201000109023E00020100FF
:207F600080320904000001020201000524001001042402040524060001070582030800FF0C
:207F800009040100020A000000070504021000010705830210000104030904220341007216
:207FA000006400750069006E006F0020004C0065006F006E006100720064006F0000001836
:1A7FC00003410072006400750069006E006F0020004C004C004300000000D7
:00000001FF
